:060000000A128A110E280D
:10000800FE00030EF7000408F8000A08F9000A12B7
:100018008A11F4280A128A11112883134630FD0028
:100028000230FE002030FF00363084000A128A11A8
:1000380011220A128A11C601C701C801C901CA01E1
:10004800CB01FA01FB0183010A128A11BB29831231
:100058000313AC01A71F312832283928A609A7099C
:10006800A60A0319A70AAC01AC0AA91F3C283D2817
:100078004628A809A909A80A0319A90A0130AA004B
:100088002A08AC06AD01AE012608270403194D283D
:100098004E288528AB01AB0A5C2801300310A60D59
:1000A800A70DFF3E031D52280130AA002A08AB07FE
:1000B800A71F5F286028512801300310AD0DAE0D31
:1000C800FF3E031D612827082902031D6D28260805
:1000D8002802031C7028712878282608A8022708F7
:1000E800031CA903A9022D1401300310A70CA60CA8
:1000F800FF3E031D79280130AB02031D84288528A3
:1001080060282C08031989288A288F28AD09AE0988
:10011800AD0A0319AE0A2E08A7002D08A60008008C
:1001280083120313B3006430A6000030A70033081D
:10013800AF00B0012F08A8003008A9000A128A11E0
:100148002B200A128A11831203132608B1003108E2
:10015800CB000A30A6000030A7004B08AF00B00162
:100168002F08A0003008A1009C30A200FF30A30097
:100178000A128A1194210A128A118312031333086E
:100188002007A80021080318210AA9000A128A11C9
:100198002B200A128A11831203132608B100310892
:1001A800CA009C30AF002F08A0004B080A128A1121
:1001B800F6210A128A1183120313B000F630B10037
:1001C8003108A0004A080A128A11F6210A128A1177
:1001D8008312031330073307B2003208C90008003E
:1001E8000B1CF728F8280B29831203130618FD287F
:1001F800FE2803290130F5007508850709298618A6
:10020800062907290929013085020B1025290B1D0C
:100218000E290F292529FE300A128A1130220A12C6
:100228008A11831203134708F5007508F00048087F
:10023800F6007608F10046080A128A1162210A12AD
:100248008A1179088A0078088400770E8300FE0EE8
:100258007E0E09008316031788018901831603138C
:100268000F088F3940388F000F148501831203134C
:1002780085018316031387018312031387018316ED
:1002880003138801831203138801FF3083160313B5
:100298008600811303309500811281110730810493
:1002A800FE308312031381008B178B1503308316DE
:1002B800031396000B108B160B110800F400831221
:1002C800031308108810081180297408870008147F
:1002D800FA01FA0A93297008870088140230F2009C
:1002E8007208FA009329710887000815FA01932902
:1002F8008030870008147A297A08F200F30173081D
:10030800003A031988297C297208003A03196929D7
:10031800013A03196F29033A031977297C29080040
:1003280083120313A401A501201C9B299C29A2293F
:100338002208A4070318A50A2308A50701300310FB
:10034800A20DA30DFF3E031DA32901300310A10C2C
:10035800A00CFF3E031DAA2920082104031DB5296E
:10036800B62998292508A1002408A00008000A1227
:100378008A112E210A128A118312031305080A1200
:100388008A1194200A128A11831203134A08B400AE
:100398003408A0004B08B5003508A10049080A1226
:1003A8008A11DC210A128A11C0290A128A110E2820
:1003B80083120313A3002108363E84008313000828
:1003C800A2002208C6002008363E84000008A200C9
:1003D8002208C7002308363E84000008A20022082D
:1003E800C800080083120313A300A201231CFD29DF
:1003F800FE29022A2008A1002108A2070310A00D47
:100408000310A30C2308031D0A2A0B2AFA29220821
:1004180008007E088A007F0882000A128A110D22CD
:100428000A128A118000840A04087D060319003420
:10043800FF0A0319FE0A112A3F3406345B344F348D
:1004480066346D347D3407347F346F3477347C34CC
:1004580039345E3479347134F00070088312031330
:0604680081000B110800E9
:08400000FF3FFF3FFF3FFF3FC0
:04400E00D420FF3F7C
:00000001FF
