:060000000A128A110E280D
:10000800FE00030EF7000408F8000A08F9000A12B7
:100018008A114D290A128A111128FA01FB0183124B
:100028000313B601B701B801B901BA01BB018301D5
:100038000A128A11392A83120313AC01A71F252833
:1000480026282D28A609A709A60A0319A70AAC017C
:10005800AC0AA91F302831283A28A809A909A80AF2
:100068000319A90A0130AA002A08AC06AD01AE019D
:10007800260827040319412842287928AB01AB0A2E
:10008800502801300310A60DA70DFF3E031D46287A
:100098000130AA002A08AB07A71F5328542845286F
:1000A80001300310AD0DAE0DFF3E031D5528270886
:1000B8002902031D612826082802031C64286528D4
:1000C8006C282608A8022708031CA903A9022D14D6
:1000D80001300310A70CA60CFF3E031D6D2801304C
:1000E800AB02031D7828792854282C0803197D2889
:1000F8007E288328AD09AE09AD0A0319AE0A2E0879
:10010800A7002D08A600080083120313A2002208E6
:10011800A0002008A300B2283F30EC280630EC28C5
:100128005B30EC284F30EC286630EC286D30EC283A
:100138007D30EC280730EC287F30EC286F30EC2835
:100148007730EC287C30EC283930EC285E30EC280D
:100158007930EC287130EC288030EC282308A00096
:10016800A1012108003A0319BA28B0282008003A4A
:1001780003199028013A03199228033A031994287D
:10018800013A03199628073A03199828013A0319DE
:100198009A28033A03199C28013A03199E280F3A12
:1001A8000319A028013A0319A228033A0319A4281D
:1001B800013A0319A628073A0319A828013A03198E
:1001C800AA28033A0319AC28013A0319AE28B02823
:1001D800080083120313B3006430A6000030A700A0
:1001E8003308AF00B0012F08A8003008A9000A1290
:1001F8008A111F200A128A11831203132608B100DC
:100208003108BB000A30A6000030A7003B08AF0049
:10021800B0012F08A0003008A1009C30A200FF30D8
:10022800A3000A128A11ED210A128A1183120313FC
:1002380033082007A80021080318210AA9000A1278
:100248008A111F200A128A11831203132608B1008B
:100258003108BA009C30AF002F08A0003B080A12F2
:100268008A115A220A128A1183120313B000F63037
:10027800B1003108A0003A080A128A115A220A125B
:100288008A118312031330073307B2003208B9000A
:1002980008000B1C502951296429831203130618DE
:1002A800562957295C290130F50075088507622908
:1002B80086185F2960296229013085020B107E2982
:1002C8000B1D672968297E29FE300A128A117122BE
:1002D8000A128A11831203133708F5007508F00013
:1002E8003808F6007608F10036080A128A11BB2190
:1002F8000A128A1179088A0078088400770E830028
:10030800FE0E7E0E090083160317880189018316E5
:1003180003130F088F3940388F000F14850183129B
:1003280003138501831603138701831203138701BF
:10033800831603138801831203138801FF30831681
:100348000313860081130330950081128111073051
:100358008104FE308312031381008B178B15033041
:100368008316031396000B108B160B110800F4006C
:1003780083120313081088100811D92974088700FC
:100388000814FA01FA0AEC29700887008814023068
:10039800F2007208FA00EC29710887000815FA01C2
:1003A800EC29803087000814D3297A08F200F30179
:1003B8007308003A0319E129D5297208003A03198C
:1003C800C229013A0319C829033A0319D029D529A2
:1003D800080083120313A401A501201CF429F529A0
:1003E800FB292208A4070318A50A2308A50701303A
:1003F8000310A20DA30DFF3E031DFC2901300310BD
:10040800A10CA00CFF3E031D032A20082104031D94
:100418000E2A0F2AF1292508A1002408A0000800A7
:1004280083120313A70025080A128A1188200A12CA
:100438008A1183120313A6002608B60024080A129C
:100448008A1188200A128A1183120313A60026082B
:10045800B70027080A128A1188200A128A11831203
:100468000313A6002608B80008000A128A1187217B
:100478000A128A118312031305080A128A11ED2041
:100488000A128A11831203133A08B4003408A4002C
:100498003B08B5003508A50039080A128A1114224C
:1004A8000A128A113E2A0A128A110E28831203138D
:1004B800A300A201231C612A622A662A2008A1003F
:1004C8002108A2070310A00D0310A30C2308031D85
:1004D8006E2A6F2A5E2A22080800F000700883122C
:0804E800031381000B11080051
:08400000FF3FFF3FFF3FFF3FC0
:04400E00D420FF3F7C
:00000001FF
